{
  "_format": "hh-sol-artifact-1",
  "contractName": "MyToken",
  "sourceName": "contracts/MyToken.sol",
  "abi": [
    {
      "inputs": [],
      "stateMutability": "nonpayable",
      "type": "constructor"
    },
    {
      "anonymous": false,
      "inputs": [
        {
          "indexed": true,
          "internalType": "address",
          "name": "owner",
          "type": "address"
        },
        {
          "indexed": true,
          "internalType": "address",
          "name": "spender",
          "type": "address"
        },
        {
          "indexed": false,
          "internalType": "uint256",
          "name": "value",
          "type": "uint256"
        }
      ],
      "name": "Approval",
      "type": "event"
    },
    {
      "anonymous": false,
      "inputs": [
        {
          "indexed": true,
          "internalType": "address",
          "name": "previousOwner",
          "type": "address"
        },
        {
          "indexed": true,
          "internalType": "address",
          "name": "newOwner",
          "type": "address"
        }
      ],
      "name": "OwnershipTransferred",
      "type": "event"
    },
    {
      "anonymous": false,
      "inputs": [
        {
          "indexed": true,
          "internalType": "address",
          "name": "from",
          "type": "address"
        },
        {
          "indexed": true,
          "internalType": "address",
          "name": "to",
          "type": "address"
        },
        {
          "indexed": false,
          "internalType": "uint256",
          "name": "value",
          "type": "uint256"
        }
      ],
      "name": "Transfer",
      "type": "event"
    },
    {
      "inputs": [
        {
          "internalType": "address",
          "name": "owner",
          "type": "address"
        },
        {
          "internalType": "address",
          "name": "spender",
          "type": "address"
        }
      ],
      "name": "allowance",
      "outputs": [
        {
          "internalType": "uint256",
          "name": "",
          "type": "uint256"
        }
      ],
      "stateMutability": "view",
      "type": "function"
    },
    {
      "inputs": [
        {
          "internalType": "address",
          "name": "spender",
          "type": "address"
        },
        {
          "internalType": "uint256",
          "name": "amount",
          "type": "uint256"
        }
      ],
      "name": "approve",
      "outputs": [
        {
          "internalType": "bool",
          "name": "",
          "type": "bool"
        }
      ],
      "stateMutability": "nonpayable",
      "type": "function"
    },
    {
      "inputs": [
        {
          "internalType": "address",
          "name": "account",
          "type": "address"
        }
      ],
      "name": "balanceOf",
      "outputs": [
        {
          "internalType": "uint256",
          "name": "",
          "type": "uint256"
        }
      ],
      "stateMutability": "view",
      "type": "function"
    },
    {
      "inputs": [],
      "name": "decimals",
      "outputs": [
        {
          "internalType": "uint8",
          "name": "",
          "type": "uint8"
        }
      ],
      "stateMutability": "view",
      "type": "function"
    },
    {
      "inputs": [
        {
          "internalType": "address",
          "name": "spender",
          "type": "address"
        },
        {
          "internalType": "uint256",
          "name": "subtractedValue",
          "type": "uint256"
        }
      ],
      "name": "decreaseAllowance",
      "outputs": [
        {
          "internalType": "bool",
          "name": "",
          "type": "bool"
        }
      ],
      "stateMutability": "nonpayable",
      "type": "function"
    },
    {
      "inputs": [],
      "name": "generateAction",
      "outputs": [
        {
          "internalType": "int64",
          "name": "",
          "type": "int64"
        }
      ],
      "stateMutability": "view",
      "type": "function"
    },
    {
      "inputs": [
        {
          "internalType": "address",
          "name": "spender",
          "type": "address"
        },
        {
          "internalType": "uint256",
          "name": "addedValue",
          "type": "uint256"
        }
      ],
      "name": "increaseAllowance",
      "outputs": [
        {
          "internalType": "bool",
          "name": "",
          "type": "bool"
        }
      ],
      "stateMutability": "nonpayable",
      "type": "function"
    },
    {
      "inputs": [
        {
          "internalType": "address",
          "name": "to",
          "type": "address"
        },
        {
          "internalType": "uint256",
          "name": "amount",
          "type": "uint256"
        }
      ],
      "name": "mint",
      "outputs": [],
      "stateMutability": "nonpayable",
      "type": "function"
    },
    {
      "inputs": [],
      "name": "name",
      "outputs": [
        {
          "internalType": "string",
          "name": "",
          "type": "string"
        }
      ],
      "stateMutability": "view",
      "type": "function"
    },
    {
      "inputs": [],
      "name": "owner",
      "outputs": [
        {
          "internalType": "address",
          "name": "",
          "type": "address"
        }
      ],
      "stateMutability": "view",
      "type": "function"
    },
    {
      "inputs": [],
      "name": "renounceOwnership",
      "outputs": [],
      "stateMutability": "nonpayable",
      "type": "function"
    },
    {
      "inputs": [],
      "name": "symbol",
      "outputs": [
        {
          "internalType": "string",
          "name": "",
          "type": "string"
        }
      ],
      "stateMutability": "view",
      "type": "function"
    },
    {
      "inputs": [],
      "name": "totalSupply",
      "outputs": [
        {
          "internalType": "uint256",
          "name": "",
          "type": "uint256"
        }
      ],
      "stateMutability": "view",
      "type": "function"
    },
    {
      "inputs": [
        {
          "internalType": "address",
          "name": "to",
          "type": "address"
        },
        {
          "internalType": "uint256",
          "name": "amount",
          "type": "uint256"
        }
      ],
      "name": "transfer",
      "outputs": [
        {
          "internalType": "bool",
          "name": "",
          "type": "bool"
        }
      ],
      "stateMutability": "nonpayable",
      "type": "function"
    },
    {
      "inputs": [
        {
          "internalType": "address",
          "name": "from",
          "type": "address"
        },
        {
          "internalType": "address",
          "name": "to",
          "type": "address"
        },
        {
          "internalType": "uint256",
          "name": "amount",
          "type": "uint256"
        }
      ],
      "name": "transferFrom",
      "outputs": [
        {
          "internalType": "bool",
          "name": "",
          "type": "bool"
        }
      ],
      "stateMutability": "nonpayable",
      "type": "function"
    },
    {
      "inputs": [
        {
          "internalType": "address",
          "name": "newOwner",
          "type": "address"
        }
      ],
      "name": "transferOwnership",
      "outputs": [],
      "stateMutability": "nonpayable",
      "type": "function"
    }
  ],
  "bytecode": "0x60806040523480156200001157600080fd5b506040518060400160405280600781526020017f4d79546f6b656e000000000000000000000000000000000000000000000000008152506040518060400160405280600381526020017f414354000000000000000000000000000000000000000000000000000000000081525081600390805190602001906200009692919062000367565b508060049080519060200190620000af92919062000367565b505050620000d2620000c66200011860201b60201c565b6200012060201b60201c565b6200011233620000e7620001e660201b60201c565b600a620000f59190620005b1565b63042c1d8062000106919062000602565b620001ef60201b60201c565b620007d6565b600033905090565b6000600560009054906101000a900473ffffffffffffffffffffffffffffffffffffffff16905081600560006101000a81548173ffffffffffffffffffffffffffffffffffffffff021916908373ffffffffffffffffffffffffffffffffffffffff1602179055508173ffffffffffffffffffffffffffffffffffffffff168173ffffffffffffffffffffffffffffffffffffffff167f8be0079c531659141344cd1fd0a4f28419497f9722a3daafe3b4186f6b6457e060405160405180910390a35050565b60006012905090565b600073ffffffffffffffffffffffffffffffffffffffff168273ffffffffffffffffffffffffffffffffffffffff16141562000262576040517f08c379a00000000000000000000000000000000000000000000000000000000081526004016200025990620006c4565b60405180910390fd5b62000276600083836200035d60201b60201c565b80600260008282546200028a9190620006e6565b92505081905550806000808473ffffffffffffffffffffffffffffffffffffffff1673ffffffffffffffffffffffffffffffffffffffff168152602001908152602001600020600082825401925050819055508173ffffffffffffffffffffffffffffffffffffffff16600073ffffffffffffffffffffffffffffffffffffffff167fddf252ad1be2c89b69c2b068fc378daa952ba7f163c4a11628f55a4df523b3ef836040516200033d919062000754565b60405180910390a362000359600083836200036260201b60201c565b5050565b505050565b505050565b8280546200037590620007a0565b90600052602060002090601f016020900481019282620003995760008555620003e5565b82601f10620003b457805160ff1916838001178555620003e5565b82800160010185558215620003e5579182015b82811115620003e4578251825591602001919060010190620003c7565b5b509050620003f49190620003f8565b5090565b5b8082111562000413576000816000905550600101620003f9565b5090565b7f4e487b7100000000000000000000000000000000000000000000000000000000600052601160045260246000fd5b60008160011c9050919050565b6000808291508390505b6001851115620004a5578086048111156200047d576200047c62000417565b5b60018516156200048d5780820291505b80810290506200049d8562000446565b94506200045d565b94509492505050565b600082620004c0576001905062000593565b81620004d0576000905062000593565b8160018114620004e95760028114620004f4576200052a565b600191505062000593565b60ff84111562000509576200050862000417565b5b8360020a91508482111562000523576200052262000417565b5b5062000593565b5060208310610133831016604e8410600b8410161715620005645782820a9050838111156200055e576200055d62000417565b5b62000593565b62000573848484600162000453565b925090508184048111156200058d576200058c62000417565b5b81810290505b9392505050565b6000819050919050565b600060ff82169050919050565b6000620005be826200059a565b9150620005cb83620005a4565b9250620005fa7fffffffffffffffffffffffffffffffffffffffffffffffffffffffffffffffff8484620004ae565b905092915050565b60006200060f826200059a565b91506200061c836200059a565b9250817fffffffffffffffffffffffffffffffffffffffffffffffffffffffffffffffff048311821515161562000658576200065762000417565b5b828202905092915050565b600082825260208201905092915050565b7f45524332303a206d696e7420746f20746865207a65726f206164647265737300600082015250565b6000620006ac601f8362000663565b9150620006b98262000674565b602082019050919050565b60006020820190508181036000830152620006df816200069d565b9050919050565b6000620006f3826200059a565b915062000700836200059a565b9250827fffffffffffffffffffffffffffffffffffffffffffffffffffffffffffffffff0382111562000738576200073762000417565b5b828201905092915050565b6200074e816200059a565b82525050565b60006020820190506200076b600083018462000743565b92915050565b7f4e487b7100000000000000000000000000000000000000000000000000000000600052602260045260246000fd5b60006002820490506001821680620007b957607f821691505b60208210811415620007d057620007cf62000771565b5b50919050565b61187b80620007e66000396000f3fe608060405234801561001057600080fd5b50600436106101005760003560e01c806370a0823111610097578063a457c2d711610066578063a457c2d71461029f578063a9059cbb146102cf578063dd62ed3e146102ff578063f2fde38b1461032f57610100565b806370a0823114610229578063715018a6146102595780638da5cb5b1461026357806395d89b411461028157610100565b8063313ce567116100d3578063313ce567146101a157806339509351146101bf578063395bcc6f146101ef57806340c10f191461020d57610100565b806306fdde0314610105578063095ea7b31461012357806318160ddd1461015357806323b872dd14610171575b600080fd5b61010d61034b565b60405161011a9190610f6a565b60405180910390f35b61013d60048036038101906101389190611025565b6103dd565b60405161014a9190611080565b60405180910390f35b61015b610400565b60405161016891906110aa565b60405180910390f35b61018b600480360381019061018691906110c5565b61040a565b6040516101989190611080565b60405180910390f35b6101a9610439565b6040516101b69190611134565b60405180910390f35b6101d960048036038101906101d49190611025565b610442565b6040516101e69190611080565b60405180910390f35b6101f7610479565b604051610204919061116b565b60405180910390f35b61022760048036038101906102229190611025565b610482565b005b610243600480360381019061023e9190611186565b610498565b60405161025091906110aa565b60405180910390f35b6102616104e0565b005b61026b6104f4565b60405161027891906111c2565b60405180910390f35b61028961051e565b6040516102969190610f6a565b60405180910390f35b6102b960048036038101906102b49190611025565b6105b0565b6040516102c69190611080565b60405180910390f35b6102e960048036038101906102e49190611025565b610627565b6040516102f69190611080565b60405180910390f35b610319600480360381019061031491906111dd565b61064a565b60405161032691906110aa565b60405180910390f35b61034960048036038101906103449190611186565b6106d1565b005b60606003805461035a9061124c565b80601f01602080910402602001604051908101604052809291908181526020018280546103869061124c565b80156103d35780601f106103a8576101008083540402835291602001916103d3565b820191906000526020600020905b8154815290600101906020018083116103b657829003601f168201915b5050505050905090565b6000806103e8610755565b90506103f581858561075d565b600191505092915050565b6000600254905090565b600080610415610755565b9050610422858285610928565b61042d8585856109b4565b60019150509392505050565b60006012905090565b60008061044d610755565b905061046e81858561045f858961064a565b61046991906112ad565b61075d565b600191505092915050565b60006001905090565b61048a610c2c565b6104948282610caa565b5050565b60008060008373ffffffffffffffffffffffffffffffffffffffff1673ffffffffffffffffffffffffffffffffffffffff168152602001908152602001600020549050919050565b6104e8610c2c565b6104f26000610e01565b565b6000600560009054906101000a900473ffffffffffffffffffffffffffffffffffffffff16905090565b60606004805461052d9061124c565b80601f01602080910402602001604051908101604052809291908181526020018280546105599061124c565b80156105a65780601f1061057b576101008083540402835291602001916105a6565b820191906000526020600020905b81548152906001019060200180831161058957829003601f168201915b5050505050905090565b6000806105bb610755565b905060006105c9828661064a565b90508381101561060e576040517f08c379a000000000000000000000000000000000000000000000000000000000815260040161060590611375565b60405180910390fd5b61061b828686840361075d565b60019250505092915050565b600080610632610755565b905061063f8185856109b4565b600191505092915050565b6000600160008473ffffffffffffffffffffffffffffffffffffffff1673ffffffffffffffffffffffffffffffffffffffff16815260200190815260200160002060008373ffffffffffffffffffffffffffffffffffffffff1673ffffffffffffffffffffffffffffffffffffffff16815260200190815260200160002054905092915050565b6106d9610c2c565b600073ffffffffffffffffffffffffffffffffffffffff168173ffffffffffffffffffffffffffffffffffffffff161415610749576040517f08c379a000000000000000000000000000000000000000000000000000000000815260040161074090611407565b60405180910390fd5b61075281610e01565b50565b600033905090565b600073ffffffffffffffffffffffffffffffffffffffff168373ffffffffffffffffffffffffffffffffffffffff1614156107cd576040517f08c379a00000000000000000000000000000000000000000000000000000000081526004016107c490611499565b60405180910390fd5b600073ffffffffffffffffffffffffffffffffffffffff168273ffffffffffffffffffffffffffffffffffffffff16141561083d576040517f08c379a00000000000000000000000000000000000000000000000000000000081526004016108349061152b565b60405180910390fd5b80600160008573ffffffffffffffffffffffffffffffffffffffff1673ffffffffffffffffffffffffffffffffffffffff16815260200190815260200160002060008473ffffffffffffffffffffffffffffffffffffffff1673ffffffffffffffffffffffffffffffffffffffff168152602001908152602001600020819055508173ffffffffffffffffffffffffffffffffffffffff168373ffffffffffffffffffffffffffffffffffffffff167f8c5be1e5ebec7d5bd14f71427d1e84f3dd0314c0f7b2291e5b200ac8c7c3b9258360405161091b91906110aa565b60405180910390a3505050565b6000610934848461064a565b90507fffffffffffffffffffffffffffffffffffffffffffffffffffffffffffffffff81146109ae57818110156109a0576040517f08c379a000000000000000000000000000000000000000000000000000000000815260040161099790611597565b60405180910390fd5b6109ad848484840361075d565b5b50505050565b600073ffffffffffffffffffffffffffffffffffffffff168373ffffffffffffffffffffffffffffffffffffffff161415610a24576040517f08c379a0000000000000000000000000000000000000000000000000000000008152600401610a1b90611629565b60405180910390fd5b600073ffffffffffffffffffffffffffffffffffffffff168273ffffffffffffffffffffffffffffffffffffffff161415610a94576040517f08c379a0000000000000000000000000000000000000000000000000000000008152600401610a8b906116bb565b60405180910390fd5b610a9f838383610ec7565b60008060008573ffffffffffffffffffffffffffffffffffffffff1673ffffffffffffffffffffffffffffffffffffffff16815260200190815260200160002054905081811015610b25576040517f08c379a0000000000000000000000000000000000000000000000000000000008152600401610b1c9061174d565b60405180910390fd5b8181036000808673ffffffffffffffffffffffffffffffffffffffff1673ffffffffffffffffffffffffffffffffffffffff16815260200190815260200160002081905550816000808573ffffffffffffffffffffffffffffffffffffffff1673ffffffffffffffffffffffffffffffffffffffff168152602001908152602001600020600082825401925050819055508273ffffffffffffffffffffffffffffffffffffffff168473ffffffffffffffffffffffffffffffffffffffff167fddf252ad1be2c89b69c2b068fc378daa952ba7f163c4a11628f55a4df523b3ef84604051610c1391906110aa565b60405180910390a3610c26848484610ecc565b50505050565b610c34610755565b73ffffffffffffffffffffffffffffffffffffffff16610c526104f4565b73ffffffffffffffffffffffffffffffffffffffff1614610ca8576040517f08c379a0000000000000000000000000000000000000000000000000000000008152600401610c9f906117b9565b60405180910390fd5b565b600073ffffffffffffffffffffffffffffffffffffffff168273ffffffffffffffffffffffffffffffffffffffff161415610d1a576040517f08c379a0000000000000000000000000000000000000000000000000000000008152600401610d1190611825565b60405180910390fd5b610d2660008383610ec7565b8060026000828254610d3891906112ad565b92505081905550806000808473ffffffffffffffffffffffffffffffffffffffff1673ffffffffffffffffffffffffffffffffffffffff168152602001908152602001600020600082825401925050819055508173ffffffffffffffffffffffffffffffffffffffff16600073ffffffffffffffffffffffffffffffffffffffff167fddf252ad1be2c89b69c2b068fc378daa952ba7f163c4a11628f55a4df523b3ef83604051610de991906110aa565b60405180910390a3610dfd60008383610ecc565b5050565b6000600560009054906101000a900473ffffffffffffffffffffffffffffffffffffffff16905081600560006101000a81548173ffffffffffffffffffffffffffffffffffffffff021916908373ffffffffffffffffffffffffffffffffffffffff1602179055508173ffffffffffffffffffffffffffffffffffffffff168173ffffffffffffffffffffffffffffffffffffffff167f8be0079c531659141344cd1fd0a4f28419497f9722a3daafe3b4186f6b6457e060405160405180910390a35050565b505050565b505050565b600081519050919050565b600082825260208201905092915050565b60005b83811015610f0b578082015181840152602081019050610ef0565b83811115610f1a576000848401525b50505050565b6000601f19601f8301169050919050565b6000610f3c82610ed1565b610f468185610edc565b9350610f56818560208601610eed565b610f5f81610f20565b840191505092915050565b60006020820190508181036000830152610f848184610f31565b905092915050565b600080fd5b600073ffffffffffffffffffffffffffffffffffffffff82169050919050565b6000610fbc82610f91565b9050919050565b610fcc81610fb1565b8114610fd757600080fd5b50565b600081359050610fe981610fc3565b92915050565b6000819050919050565b61100281610fef565b811461100d57600080fd5b50565b60008135905061101f81610ff9565b92915050565b6000806040838503121561103c5761103b610f8c565b5b600061104a85828601610fda565b925050602061105b85828601611010565b9150509250929050565b60008115159050919050565b61107a81611065565b82525050565b60006020820190506110956000830184611071565b92915050565b6110a481610fef565b82525050565b60006020820190506110bf600083018461109b565b92915050565b6000806000606084860312156110de576110dd610f8c565b5b60006110ec86828701610fda565b93505060206110fd86828701610fda565b925050604061110e86828701611010565b9150509250925092565b600060ff82169050919050565b61112e81611118565b82525050565b60006020820190506111496000830184611125565b92915050565b60008160070b9050919050565b6111658161114f565b82525050565b6000602082019050611180600083018461115c565b92915050565b60006020828403121561119c5761119b610f8c565b5b60006111aa84828501610fda565b91505092915050565b6111bc81610fb1565b82525050565b60006020820190506111d760008301846111b3565b92915050565b600080604083850312156111f4576111f3610f8c565b5b600061120285828601610fda565b925050602061121385828601610fda565b9150509250929050565b7f4e487b7100000000000000000000000000000000000000000000000000000000600052602260045260246000fd5b6000600282049050600182168061126457607f821691505b602082108114156112785761127761121d565b5b50919050565b7f4e487b7100000000000000000000000000000000000000000000000000000000600052601160045260246000fd5b60006112b882610fef565b91506112c383610fef565b9250827fffffffffffffffffffffffffffffffffffffffffffffffffffffffffffffffff038211156112f8576112f761127e565b5b828201905092915050565b7f45524332303a2064656372656173656420616c6c6f77616e63652062656c6f7760008201527f207a65726f000000000000000000000000000000000000000000000000000000602082015250565b600061135f602583610edc565b915061136a82611303565b604082019050919050565b6000602082019050818103600083015261138e81611352565b9050919050565b7f4f776e61626c653a206e6577206f776e657220697320746865207a65726f206160008201527f6464726573730000000000000000000000000000000000000000000000000000602082015250565b60006113f1602683610edc565b91506113fc82611395565b604082019050919050565b60006020820190508181036000830152611420816113e4565b9050919050565b7f45524332303a20617070726f76652066726f6d20746865207a65726f2061646460008201527f7265737300000000000000000000000000000000000000000000000000000000602082015250565b6000611483602483610edc565b915061148e82611427565b604082019050919050565b600060208201905081810360008301526114b281611476565b9050919050565b7f45524332303a20617070726f766520746f20746865207a65726f20616464726560008201527f7373000000000000000000000000000000000000000000000000000000000000602082015250565b6000611515602283610edc565b9150611520826114b9565b604082019050919050565b6000602082019050818103600083015261154481611508565b9050919050565b7f45524332303a20696e73756666696369656e7420616c6c6f77616e6365000000600082015250565b6000611581601d83610edc565b915061158c8261154b565b602082019050919050565b600060208201905081810360008301526115b081611574565b9050919050565b7f45524332303a207472616e736665722066726f6d20746865207a65726f20616460008201527f6472657373000000000000000000000000000000000000000000000000000000602082015250565b6000611613602583610edc565b915061161e826115b7565b604082019050919050565b6000602082019050818103600083015261164281611606565b9050919050565b7f45524332303a207472616e7366657220746f20746865207a65726f206164647260008201527f6573730000000000000000000000000000000000000000000000000000000000602082015250565b60006116a5602383610edc565b91506116b082611649565b604082019050919050565b600060208201905081810360008301526116d481611698565b9050919050565b7f45524332303a207472616e7366657220616d6f756e742065786365656473206260008201527f616c616e63650000000000000000000000000000000000000000000000000000602082015250565b6000611737602683610edc565b9150611742826116db565b604082019050919050565b600060208201905081810360008301526117668161172a565b9050919050565b7f4f776e61626c653a2063616c6c6572206973206e6f7420746865206f776e6572600082015250565b60006117a3602083610edc565b91506117ae8261176d565b602082019050919050565b600060208201905081810360008301526117d281611796565b9050919050565b7f45524332303a206d696e7420746f20746865207a65726f206164647265737300600082015250565b600061180f601f83610edc565b915061181a826117d9565b602082019050919050565b6000602082019050818103600083015261183e81611802565b905091905056fea2646970667358221220f2eb48d06232217f5a5f40f8450cc85e27babb22e6a58caab07257b7b01ba57f64736f6c63430008090033",
  "linkReferences": {},
  "deployedLinkReferences": {}
}